:0300000002026297
:0C026200787FE4F6D8FD75811402026E6E
:0C01B400C2A5C2A78980D2A77F017E00EF
:1001C000D3EF9400EE9400400F7DC77C01DCFEDD90
:0801D000FAEF1F70EB1E80E83E
:0101D8002204
:1001D900E4FBC2A6D2A5D2A77F01FE1201C0E58029
:1001E90030E70C0BEBD3946440F4C2A77F0022C222
:0301F900A77F01DC
:0101FC0022E0
:08018C002480FF1201947F8022
:02019400A907B9
:10019600E4FA1201D9EF700E7F01FE1201C00AEADD
:0D01A600D3946440ED22C2A61201B4C2A79A
:0101B3002229
:0A013900AB10AA11A912120236FF42
:02014300A9070A
:10014500E4FA1201D9EF700E7F01FE1201C00AEA2E
:0D015500D3946440ED22D2A61201B4C2A7DB
:01016200227A
:10016300E4FA1201D9EF70107F01FE1201C00AEA0E
:10017300D3946440ED7F0022D2A6D2A5C2A7120178
:08018300BC1201BAAF80C2A753
:01018B002251
:10024F00D2B2D2B47F301201947F0C1201947F018D
:03025F0002019405
:100108007F34120194E4F508E50812018CE4F5093E
:10011800E4FF1201430509E509C3942040F20508EC
:10012800E508C3942040E17F361201947F30020134
:010138009432
:1001FD00EF70047F808013BF01047F90800CBF02DD
:10020D00047F888005BF03027F98EF2DFF020194C4
:060092008B108A11891297
:100098001201087F34120194E4F513E51312018C60
:1000A800E4F51412013974012512F512E43511F53D
:1000B800110514E514C3941040E90513E513C3941E
:1000C8002040D8E4F513E5132480FF1201947F88BB
:1000D800120194E4F51412013974012512F512E4A1
:1000E8003511F5110514E514C3941040E90513E51D
:1000F80013C3942040D07F361201947F30020194BC
:10000300E4F508F509F50AF50BED541F2480F50D09
:10001300EDD3941FEFC4540F40062488F50C8004DD
:100023002480F50CEF540FFFE47E80A807088005B9
:10003300CEC313CE13D8F9F5098E087F3412019479
:10004300AF0D120194AF0C120194120163120163FC
:10005300750A008F0BE50B750B00F50A120163EFB0
:10006300420BE50B4209E50A4208E508F50E85094E
:100073000FAF0D120194AF0C120194AF0E12014396
:0F008300AF0F1201437F361201947F30020194B8
:0C026E001201087D3F7F7F12000380FE1C
:10021D00D3EF9400EE9400400F7D267C82DCFEDD52
:08022D00FAEF1F70EB1E80E8E0
:0102350022A6
:10023600BB010689828A83E0225002E722BBFE02C6
:09024600E32289828A83E49322F9
:00000001FF
