:0300000002013DBD
:0C013D00787FE4F6D8FD7581080200030D
:0C008100C2A5C2A78980D2A77F057E001F
:10008D00D3EF9400EE9400400F7DC77C01DCFEDDC4
:08009D00FAEF1F70EB1E80E872
:0100A5002238
:1000A600E4FBC2A6D2A5D2A77F01FE12008DE58091
:1000B60030E70C0BEBD3946440F4C2A77F0022C256
:0300C600A77F0110
:0100C9002214
:0200CA00A90784
:1000CC00E4FA1200A6EF700E7F01FE12008D0AEA10
:0D00DC00D3946440ED22C2A6120081C2A799
:0100E90022F4
:0200EA00A90764
:1000EC00E4FA1200A6EF700E7F01FE12008D0AEAF0
:0D00FC00D3946440ED22D2A6120081C2A769
:0101090022D3
:10012A00D2B2D2B47F301200CA7F0C1200CA7F0149
:03013A000200CAF6
:10010A00EF70047F808013BF01047F90800CBF02D0
:10011A00047F888005BF03027F98EF2DFF0200CA83
:10004200BBB6D3ADB9E2C1D9D0BEBAD3B5E7D7D327
:1000520078686D63752E74616F62616F2E636F6D68
:10006200C0B6C6C1B0D7D7D63556B4F8D7D6BFE2D8
:0F007200D7A3C7D7B9BACEEFD3E4BFECA3A10091
:1000030012012AE4FDFF12010AE50890004293FF62
:10001300602B1200EA0508E508B41007E4FD7F0130
:1000230012010AE508B42007E4FD7F0212010AE584
:0F00330008B430D5E4FD7F0312010A80CC80FEB3
:00000001FF
